{
  "_format": "hh-sol-artifact-1",
  "contractName": "Router",
  "sourceName": "contracts/Router.sol",
  "abi": [
    {
      "inputs": [
        {
          "internalType": "bytes",
          "name": "result",
          "type": "bytes"
        },
        {
          "internalType": "uint256",
          "name": "offset",
          "type": "uint256"
        }
      ],
      "name": "getResultOffset",
      "outputs": [
        {
          "internalType": "uint256",
          "name": "",
          "type": "uint256"
        }
      ],
      "stateMutability": "pure",
      "type": "function"
    },
    {
      "inputs": [
        {
          "internalType": "bytes",
          "name": "encodedCall",
          "type": "bytes"
        },
        {
          "internalType": "uint256",
          "name": "offset",
          "type": "uint256"
        },
        {
          "internalType": "uint256",
          "name": "newData",
          "type": "uint256"
        }
      ],
      "name": "modifyCallData",
      "outputs": [
        {
          "internalType": "bytes",
          "name": "",
          "type": "bytes"
        }
      ],
      "stateMutability": "pure",
      "type": "function"
    },
    {
      "inputs": [
        {
          "components": [
            {
              "internalType": "address",
              "name": "stepAddress",
              "type": "address"
            },
            {
              "internalType": "bytes",
              "name": "stepEncodedCall",
              "type": "bytes"
            },
            {
              "components": [
                {
                  "internalType": "enum Router.StoreOpType",
                  "name": "storeOpType",
                  "type": "uint8"
                },
                {
                  "internalType": "uint256",
                  "name": "storeNumber",
                  "type": "uint256"
                },
                {
                  "internalType": "uint256",
                  "name": "offset",
                  "type": "uint256"
                },
                {
                  "internalType": "uint256",
                  "name": "fraction",
                  "type": "uint256"
                }
              ],
              "internalType": "struct Router.StoreOperation[]",
              "name": "storeOperations",
              "type": "tuple[]"
            }
          ],
          "internalType": "struct Router.Step[]",
          "name": "steps",
          "type": "tuple[]"
        },
        {
          "internalType": "uint256[]",
          "name": "stores",
          "type": "uint256[]"
        }
      ],
      "name": "runSteps",
      "outputs": [],
      "stateMutability": "nonpayable",
      "type": "function"
    }
  ],
  "bytecode": "0x608060405234801561001057600080fd5b506116f7806100206000396000f3fe608060405234801561001057600080fd5b50600436106100415760003560e01c806332a07c521461004657806391aa780e1461007657806392bc9505146100a6575b600080fd5b610060600480360381019061005b9190610df3565b6100c2565b60405161006d9190610ee1565b60405180910390f35b610090600480360381019061008b9190610f03565b6101ab565b60405161009d9190610f6e565b60405180910390f35b6100c060048036038101906100bb91906110ac565b610212565b005b606083516020846100d39190611157565b1115610114576040517f08c379a000000000000000000000000000000000000000000000000000000000815260040161010b906111e8565b60405180910390fd5b60008260001b905060005b602081101561019f5781816020811061013b5761013a611208565b5b1a60f81b86828761014c9190611157565b8151811061015d5761015c611208565b5b60200101907effffffffffffffffffffffffffffffffffffffffffffffffffffffffffffff1916908160001a905350808061019790611237565b91505061011f565b50849150509392505050565b600082516020836101bc9190611157565b11156101fd576040517f08c379a00000000000000000000000000000000000000000000000000000000081526004016101f4906111e8565b60405180910390fd5b60006020830184015190508091505092915050565b60008383905011610258576040517f08c379a000000000000000000000000000000000000000000000000000000000815260040161024f906112cb565b60405180910390fd5b6000606060005b858590508161ffff161015610c5b5760008087878461ffff1681811061028857610287611208565b5b905060200281019061029a91906112fa565b80602001906102a99190611322565b8080601f016020809104026020016040519081016040528093929190818152602001838380828437600081840152601f19601f82011690508083019250505050505050905060005b88888561ffff1681811061030857610307611208565b5b905060200281019061031a91906112fa565b80604001906103299190611385565b90508161ffff161015610774576000878a8a8761ffff168181106103505761034f611208565b5b905060200281019061036291906112fa565b80604001906103719190611385565b8461ffff1681811061038657610385611208565b5b90506080020160200135815181106103a1576103a0611208565b5b6020026020010151905060008a8a8761ffff168181106103c4576103c3611208565b5b90506020028101906103d691906112fa565b80604001906103e59190611385565b8461ffff168181106103fa576103f9611208565b5b9050608002016060013590506000808c8c8961ffff168181106104205761041f611208565b5b905060200281019061043291906112fa565b80604001906104419190611385565b8661ffff1681811061045657610455611208565b5b905060800201600001602081019061046e919061140d565b9050600060058111156104845761048361143a565b5b8160058111156104975761049661143a565b5b14806104c75750600360058111156104b2576104b161143a565b5b8160058111156104c5576104c461143a565b5b145b156104ec57620f424083856104dc9190611469565b6104e691906114da565b91508196505b60016005811115610500576104ff61143a565b5b8160058111156105135761051261143a565b5b148061054357506004600581111561052e5761052d61143a565b5b8160058111156105415761054061143a565b5b145b156105c857620f424083856105589190611469565b61056291906114da565b91506105c5868e8e8b61ffff1681811061057f5761057e611208565b5b905060200281019061059191906112fa565b80604001906105a09190611385565b8861ffff168181106105b5576105b4611208565b5b90506080020160400135846100c2565b95505b600360058111156105dc576105db61143a565b5b8160058111156105ef576105ee61143a565b5b148061061f57506004600581111561060a5761060961143a565b5b81600581111561061d5761061c61143a565b5b145b1561075d57818b8e8e8b61ffff1681811061063d5761063c611208565b5b905060200281019061064f91906112fa565b806040019061065e9190611385565b8861ffff1681811061067357610672611208565b5b905060800201602001358151811061068e5761068d611208565b5b602002602001015110156106d7576040517f08c379a00000000000000000000000000000000000000000000000000000000081526004016106ce90611557565b60405180910390fd5b818b8e8e8b61ffff168181106106f0576106ef611208565b5b905060200281019061070291906112fa565b80604001906107119190611385565b8861ffff1681811061072657610725611208565b5b905060800201602001358151811061074157610740611208565b5b602002602001018181516107559190611577565b915081815250505b50505050808061076c906115b9565b9150506102f1565b50600082111561082e5787878461ffff1681811061079557610794611208565b5b90506020028101906107a791906112fa565b60000160208101906107b99190611641565b73ffffffffffffffffffffffffffffffffffffffff1682826040516107de91906116aa565b60006040518083038185875af1925050503d806000811461081b576040519150601f19603f3d011682016040523d82523d6000602084013e610820565b606091505b5080955081965050506108d9565b87878461ffff1681811061084557610844611208565b5b905060200281019061085791906112fa565b60000160208101906108699190611641565b73ffffffffffffffffffffffffffffffffffffffff168160405161088d91906116aa565b6000604051808303816000865af19150503d80600081146108ca576040519150601f19603f3d011682016040523d82523d6000602084013e6108cf565b606091505b5080955081965050505b846108eb576040513d806000833e8082fd5b60005b88888561ffff1681811061090557610904611208565b5b905060200281019061091791906112fa565b80604001906109269190611385565b90508161ffff161015610c4557600260058111156109475761094661143a565b5b89898661ffff1681811061095e5761095d611208565b5b905060200281019061097091906112fa565b806040019061097f9190611385565b8361ffff1681811061099457610993611208565b5b90506080020160000160208101906109ac919061140d565b60058111156109be576109bd61143a565b5b03610aac57610a23858a8a8761ffff168181106109de576109dd611208565b5b90506020028101906109f091906112fa565b80604001906109ff9190611385565b8461ffff16818110610a1457610a13611208565b5b905060800201604001356101ab565b878a8a8761ffff16818110610a3b57610a3a611208565b5b9050602002810190610a4d91906112fa565b8060400190610a5c9190611385565b8461ffff16818110610a7157610a70611208565b5b9050608002016020013581518110610a8c57610a8b611208565b5b60200260200101818151610aa09190611157565b91508181525050610c32565b600580811115610abf57610abe61143a565b5b89898661ffff16818110610ad657610ad5611208565b5b9050602002810190610ae891906112fa565b8060400190610af79190611385565b8361ffff16818110610b0c57610b0b611208565b5b9050608002016000016020810190610b24919061140d565b6005811115610b3657610b3561143a565b5b03610c31578689898661ffff16818110610b5357610b52611208565b5b9050602002810190610b6591906112fa565b8060400190610b749190611385565b8361ffff16818110610b8957610b88611208565b5b9050608002016020013581518110610ba457610ba3611208565b5b6020026020010151878a8a8761ffff16818110610bc457610bc3611208565b5b9050602002810190610bd691906112fa565b8060400190610be59190611385565b8461ffff16818110610bfa57610bf9611208565b5b9050608002016040013581518110610c1557610c14611208565b5b60200260200101818151610c299190611577565b915081815250505b5b8080610c3d906115b9565b9150506108ee565b5050508080610c53906115b9565b91505061025f565b505050505050565b6000604051905090565b600080fd5b600080fd5b600080fd5b600080fd5b6000601f19601f8301169050919050565b7f4e487b7100000000000000000000000000000000000000000000000000000000600052604160045260246000fd5b610cca82610c81565b810181811067ffffffffffffffff82111715610ce957610ce8610c92565b5b80604052505050565b6000610cfc610c63565b9050610d088282610cc1565b919050565b600067ffffffffffffffff821115610d2857610d27610c92565b5b610d3182610c81565b9050602081019050919050565b82818337600083830152505050565b6000610d60610d5b84610d0d565b610cf2565b905082815260208101848484011115610d7c57610d7b610c7c565b5b610d87848285610d3e565b509392505050565b600082601f830112610da457610da3610c77565b5b8135610db4848260208601610d4d565b91505092915050565b6000819050919050565b610dd081610dbd565b8114610ddb57600080fd5b50565b600081359050610ded81610dc7565b92915050565b600080600060608486031215610e0c57610e0b610c6d565b5b600084013567ffffffffffffffff811115610e2a57610e29610c72565b5b610e3686828701610d8f565b9350506020610e4786828701610dde565b9250506040610e5886828701610dde565b9150509250925092565b600081519050919050565b600082825260208201905092915050565b60005b83811015610e9c578082015181840152602081019050610e81565b60008484015250505050565b6000610eb382610e62565b610ebd8185610e6d565b9350610ecd818560208601610e7e565b610ed681610c81565b840191505092915050565b60006020820190508181036000830152610efb8184610ea8565b905092915050565b60008060408385031215610f1a57610f19610c6d565b5b600083013567ffffffffffffffff811115610f3857610f37610c72565b5b610f4485828601610d8f565b9250506020610f5585828601610dde565b9150509250929050565b610f6881610dbd565b82525050565b6000602082019050610f836000830184610f5f565b92915050565b600080fd5b600080fd5b60008083601f840112610fa957610fa8610c77565b5b8235905067ffffffffffffffff811115610fc657610fc5610f89565b5b602083019150836020820283011115610fe257610fe1610f8e565b5b9250929050565b600067ffffffffffffffff82111561100457611003610c92565b5b602082029050602081019050919050565b600061102861102384610fe9565b610cf2565b9050808382526020820190506020840283018581111561104b5761104a610f8e565b5b835b8181101561107457806110608882610dde565b84526020840193505060208101905061104d565b5050509392505050565b600082601f83011261109357611092610c77565b5b81356110a3848260208601611015565b91505092915050565b6000806000604084860312156110c5576110c4610c6d565b5b600084013567ffffffffffffffff8111156110e3576110e2610c72565b5b6110ef86828701610f93565b9350935050602084013567ffffffffffffffff81111561111257611111610c72565b5b61111e8682870161107e565b9150509250925092565b7f4e487b7100000000000000000000000000000000000000000000000000000000600052601160045260246000fd5b600061116282610dbd565b915061116d83610dbd565b925082820190508082111561118557611184611128565b5b92915050565b600082825260208201905092915050565b7f496e76616c6964206f6666736574000000000000000000000000000000000000600082015250565b60006111d2600e8361118b565b91506111dd8261119c565b602082019050919050565b60006020820190508181036000830152611201816111c5565b9050919050565b7f4e487b7100000000000000000000000000000000000000000000000000000000600052603260045260246000fd5b600061124282610dbd565b91507fffffffffffffffffffffffffffffffffffffffffffffffffffffffffffffffff820361127457611273611128565b5b600182019050919050565b7f524f555445523a20494e56414c4944204c454e47544853000000000000000000600082015250565b60006112b560178361118b565b91506112c08261127f565b602082019050919050565b600060208201905081810360008301526112e4816112a8565b9050919050565b600080fd5b600080fd5b600080fd5b600082356001606003833603038112611316576113156112eb565b5b80830191505092915050565b6000808335600160200384360303811261133f5761133e6112eb565b5b80840192508235915067ffffffffffffffff821115611361576113606112f0565b5b60208301925060018202360383131561137d5761137c6112f5565b5b509250929050565b600080833560016020038436030381126113a2576113a16112eb565b5b80840192508235915067ffffffffffffffff8211156113c4576113c36112f0565b5b6020830192506080820236038313156113e0576113df6112f5565b5b509250929050565b600681106113f557600080fd5b50565b600081359050611407816113e8565b92915050565b60006020828403121561142357611422610c6d565b5b6000611431848285016113f8565b91505092915050565b7f4e487b7100000000000000000000000000000000000000000000000000000000600052602160045260246000fd5b600061147482610dbd565b915061147f83610dbd565b925082820261148d81610dbd565b915082820484148315176114a4576114a3611128565b5b5092915050565b7f4e487b7100000000000000000000000000000000000000000000000000000000600052601260045260246000fd5b60006114e582610dbd565b91506114f083610dbd565b925082611500576114ff6114ab565b5b828204905092915050565b7f496e73756666696369656e742073746f72652076616c75650000000000000000600082015250565b600061154160188361118b565b915061154c8261150b565b602082019050919050565b6000602082019050818103600083015261157081611534565b9050919050565b600061158282610dbd565b915061158d83610dbd565b92508282039050818111156115a5576115a4611128565b5b92915050565b600061ffff82169050919050565b60006115c4826115ab565b915061ffff82036115d8576115d7611128565b5b600182019050919050565b600073ffffffffffffffffffffffffffffffffffffffff82169050919050565b600061160e826115e3565b9050919050565b61161e81611603565b811461162957600080fd5b50565b60008135905061163b81611615565b92915050565b60006020828403121561165757611656610c6d565b5b60006116658482850161162c565b91505092915050565b600081905092915050565b600061168482610e62565b61168e818561166e565b935061169e818560208601610e7e565b80840191505092915050565b60006116b68284611679565b91508190509291505056fea264697066735822122004349d240e7039a214a7cd88b2c02b3b8722e2e675ab68206e5f4c888967d41864736f6c63430008140033",
  "linkReferences": {},
  "deployedLinkReferences": {}
}