{
  "_format": "hh-sol-artifact-1",
  "contractName": "GammaRatiosCalculator",
  "sourceName": "contracts/helpers/gamma/GammaRatiosCalculator.sol",
  "abi": [
    {
      "inputs": [
        {
          "internalType": "address[]",
          "name": "tokens",
          "type": "address[]"
        },
        {
          "internalType": "uint256[]",
          "name": "amountsIn",
          "type": "uint256[]"
        },
        {
          "internalType": "address",
          "name": "hypervisorAddress",
          "type": "address"
        },
        {
          "internalType": "contract IHypervisorRouter",
          "name": "hypervisorRouter",
          "type": "address"
        }
      ],
      "name": "calculateRatios",
      "outputs": [
        {
          "internalType": "uint256",
          "name": "",
          "type": "uint256"
        },
        {
          "internalType": "uint256",
          "name": "",
          "type": "uint256"
        }
      ],
      "stateMutability": "view",
      "type": "function"
    }
  ],
  "bytecode": "0x608060405234801561001057600080fd5b50610926806100206000396000f3fe608060405234801561001057600080fd5b506004361061002b5760003560e01c80634ca07a6d14610030575b600080fd5b61004a6004803603810190610045919061064c565b610061565b6040516100589291906106ff565b60405180910390f35b6000806000808473ffffffffffffffffffffffffffffffffffffffff16635ccfb71d878b8b600081811061009857610097610728565b5b90506020020160208101906100ad9190610757565b8a6000815181106100c1576100c0610728565b5b60200260200101516040518463ffffffff1660e01b81526004016100e793929190610793565b6040805180830381865afa158015610103573d6000803e3d6000fd5b505050506040513d601f19601f8201168201806040525081019061012791906107df565b915091506000808673ffffffffffffffffffffffffffffffffffffffff16635ccfb71d898d8d600181811061015f5761015e610728565b5b90506020020160208101906101749190610757565b8c60018151811061018857610187610728565b5b60200260200101516040518463ffffffff1660e01b81526004016101ae93929190610793565b6040805180830381865afa1580156101ca573d6000803e3d6000fd5b505050506040513d601f19601f820116820180604052508101906101ee91906107df565b915091508860008151811061020657610205610728565b5b602002602001015182111561027d578860008151811061022957610228610728565b5b60200260200101516102708a60018151811061024857610247610728565b5b602002602001015161271061270f87610261919061084e565b61026b91906108bf565b610399565b955095505050505061038f565b8860018151811061029157610290610728565b5b6020026020010151841115610308576102df896000815181106102b7576102b6610728565b5b602002602001015161271061270f846102d0919061084e565b6102da91906108bf565b610399565b896001815181106102f3576102f2610728565b5b6020026020010151955095505050505061038f565b6103478960008151811061031f5761031e610728565b5b602002602001015161271061270f84610338919061084e565b61034291906108bf565b610399565b6103868a60018151811061035e5761035d610728565b5b602002602001015161271061270f87610377919061084e565b61038191906108bf565b610399565b95509550505050505b9550959350505050565b60008183106103a857816103aa565b825b905092915050565b6000604051905090565b600080fd5b600080fd5b600080fd5b600080fd5b600080fd5b60008083601f8401126103eb576103ea6103c6565b5b8235905067ffffffffffffffff811115610408576104076103cb565b5b602083019150836020820283011115610424576104236103d0565b5b9250929050565b6000601f19601f8301169050919050565b7f4e487b7100000000000000000000000000000000000000000000000000000000600052604160045260246000fd5b6104748261042b565b810181811067ffffffffffffffff821117156104935761049261043c565b5b80604052505050565b60006104a66103b2565b90506104b2828261046b565b919050565b600067ffffffffffffffff8211156104d2576104d161043c565b5b602082029050602081019050919050565b6000819050919050565b6104f6816104e3565b811461050157600080fd5b50565b600081359050610513816104ed565b92915050565b600061052c610527846104b7565b61049c565b9050808382526020820190506020840283018581111561054f5761054e6103d0565b5b835b8181101561057857806105648882610504565b845260208401935050602081019050610551565b5050509392505050565b600082601f830112610597576105966103c6565b5b81356105a7848260208601610519565b91505092915050565b600073ffffffffffffffffffffffffffffffffffffffff82169050919050565b60006105db826105b0565b9050919050565b6105eb816105d0565b81146105f657600080fd5b50565b600081359050610608816105e2565b92915050565b6000610619826105d0565b9050919050565b6106298161060e565b811461063457600080fd5b50565b60008135905061064681610620565b92915050565b600080600080600060808688031215610668576106676103bc565b5b600086013567ffffffffffffffff811115610686576106856103c1565b5b610692888289016103d5565b9550955050602086013567ffffffffffffffff8111156106b5576106b46103c1565b5b6106c188828901610582565b93505060406106d2888289016105f9565b92505060606106e388828901610637565b9150509295509295909350565b6106f9816104e3565b82525050565b600060408201905061071460008301856106f0565b61072160208301846106f0565b9392505050565b7f4e487b7100000000000000000000000000000000000000000000000000000000600052603260045260246000fd5b60006020828403121561076d5761076c6103bc565b5b600061077b848285016105f9565b91505092915050565b61078d816105d0565b82525050565b60006060820190506107a86000830186610784565b6107b56020830185610784565b6107c260408301846106f0565b949350505050565b6000815190506107d9816104ed565b92915050565b600080604083850312156107f6576107f56103bc565b5b6000610804858286016107ca565b9250506020610815858286016107ca565b9150509250929050565b7f4e487b7100000000000000000000000000000000000000000000000000000000600052601160045260246000fd5b6000610859826104e3565b9150610864836104e3565b9250828202610872816104e3565b915082820484148315176108895761088861081f565b5b5092915050565b7f4e487b7100000000000000000000000000000000000000000000000000000000600052601260045260246000fd5b60006108ca826104e3565b91506108d5836104e3565b9250826108e5576108e4610890565b5b82820490509291505056fea2646970667358221220d8c6b7c4620ac019b966be26f2b8325ddd0a6a4c19608b3e18841756f3aa444b64736f6c63430008140033",
  "linkReferences": {},
  "deployedLinkReferences": {}
}