{
  "_format": "hh-sol-artifact-1",
  "contractName": "RouterSimulator",
  "sourceName": "contracts/RouterSimulator.sol",
  "abi": [
    {
      "inputs": [
        {
          "internalType": "address",
          "name": "routerAddress",
          "type": "address"
        },
        {
          "internalType": "address",
          "name": "inputToken",
          "type": "address"
        },
        {
          "internalType": "uint256",
          "name": "inputAmount",
          "type": "uint256"
        },
        {
          "internalType": "address",
          "name": "outputToken",
          "type": "address"
        },
        {
          "components": [
            {
              "internalType": "address",
              "name": "stepAddress",
              "type": "address"
            },
            {
              "internalType": "bytes",
              "name": "stepEncodedCall",
              "type": "bytes"
            },
            {
              "components": [
                {
                  "internalType": "enum Router.StoreOpType",
                  "name": "storeOpType",
                  "type": "uint8"
                },
                {
                  "internalType": "uint256",
                  "name": "storeNumber",
                  "type": "uint256"
                },
                {
                  "internalType": "uint256",
                  "name": "offset",
                  "type": "uint256"
                },
                {
                  "internalType": "uint256",
                  "name": "fraction",
                  "type": "uint256"
                }
              ],
              "internalType": "struct Router.StoreOperation[]",
              "name": "storeOperations",
              "type": "tuple[]"
            }
          ],
          "internalType": "struct Router.Step[]",
          "name": "steps",
          "type": "tuple[]"
        },
        {
          "internalType": "uint256[]",
          "name": "stores",
          "type": "uint256[]"
        }
      ],
      "name": "simulateJamTx",
      "outputs": [
        {
          "internalType": "uint256",
          "name": "",
          "type": "uint256"
        }
      ],
      "stateMutability": "nonpayable",
      "type": "function"
    }
  ],
  "bytecode": "0x608060405234801561001057600080fd5b506117c7806100206000396000f3fe608060405234801561001057600080fd5b506004361061002b5760003560e01c8063c9dd0ada14610030575b600080fd5b61004a60048036038101906100459190610471565b610060565b604051610057919061054b565b60405180910390f35b60008060405161006f90610208565b604051809103906000f08015801561008b573d6000803e3d6000fd5b5090508773ffffffffffffffffffffffffffffffffffffffff166323b872dd33838a6040518463ffffffff1660e01b81526004016100cb93929190610575565b6020604051808303816000875af11580156100ea573d6000803e3d6000fd5b505050506040513d601f19601f8201168201806040525081019061010e91906105e4565b508073ffffffffffffffffffffffffffffffffffffffff1663ad8a267e8a8787876040518563ffffffff1660e01b815260040161014e9493929190610b49565b600060405180830381600087803b15801561016857600080fd5b505af115801561017c573d6000803e3d6000fd5b505050508573ffffffffffffffffffffffffffffffffffffffff166370a08231826040518263ffffffff1660e01b81526004016101b99190610b90565b602060405180830381865afa1580156101d6573d6000803e3d6000fd5b505050506040513d601f19601f820116820180604052508101906101fa9190610bc0565b915050979650505050505050565b610ba480610bee83390190565b6000604051905090565b600080fd5b600080fd5b600073ffffffffffffffffffffffffffffffffffffffff82169050919050565b600061025482610229565b9050919050565b61026481610249565b811461026f57600080fd5b50565b6000813590506102818161025b565b92915050565b6000819050919050565b61029a81610287565b81146102a557600080fd5b50565b6000813590506102b781610291565b92915050565b600080fd5b600080fd5b600080fd5b60008083601f8401126102e2576102e16102bd565b5b8235905067ffffffffffffffff8111156102ff576102fe6102c2565b5b60208301915083602082028301111561031b5761031a6102c7565b5b9250929050565b6000601f19601f8301169050919050565b7f4e487b7100000000000000000000000000000000000000000000000000000000600052604160045260246000fd5b61036b82610322565b810181811067ffffffffffffffff8211171561038a57610389610333565b5b80604052505050565b600061039d610215565b90506103a98282610362565b919050565b600067ffffffffffffffff8211156103c9576103c8610333565b5b602082029050602081019050919050565b60006103ed6103e8846103ae565b610393565b905080838252602082019050602084028301858111156104105761040f6102c7565b5b835b81811015610439578061042588826102a8565b845260208401935050602081019050610412565b5050509392505050565b600082601f830112610458576104576102bd565b5b81356104688482602086016103da565b91505092915050565b600080600080600080600060c0888a0312156104905761048f61021f565b5b600061049e8a828b01610272565b97505060206104af8a828b01610272565b96505060406104c08a828b016102a8565b95505060606104d18a828b01610272565b945050608088013567ffffffffffffffff8111156104f2576104f1610224565b5b6104fe8a828b016102cc565b935093505060a088013567ffffffffffffffff81111561052157610520610224565b5b61052d8a828b01610443565b91505092959891949750929550565b61054581610287565b82525050565b6000602082019050610560600083018461053c565b92915050565b61056f81610249565b82525050565b600060608201905061058a6000830186610566565b6105976020830185610566565b6105a4604083018461053c565b949350505050565b60008115159050919050565b6105c1816105ac565b81146105cc57600080fd5b50565b6000815190506105de816105b8565b92915050565b6000602082840312156105fa576105f961021f565b5b6000610608848285016105cf565b91505092915050565b600082825260208201905092915050565b6000819050919050565b600061063b6020840184610272565b905092915050565b61064c81610249565b82525050565b600080fd5b600080fd5b600080fd5b6000808335600160200384360303811261067e5761067d61065c565b5b83810192508235915060208301925067ffffffffffffffff8211156106a6576106a5610652565b5b6001820236038313156106bc576106bb610657565b5b509250929050565b600082825260208201905092915050565b82818337600083830152505050565b60006106f083856106c4565b93506106fd8385846106d5565b61070683610322565b840190509392505050565b6000808335600160200384360303811261072e5761072d61065c565b5b83810192508235915060208301925067ffffffffffffffff82111561075657610755610652565b5b60808202360383131561076c5761076b610657565b5b509250929050565b600082825260208201905092915050565b6000819050919050565b6005811061079c57600080fd5b50565b6000813590506107ae8161078f565b92915050565b60006107c3602084018461079f565b905092915050565b7f4e487b7100000000000000000000000000000000000000000000000000000000600052602160045260246000fd5b6005811061080b5761080a6107cb565b5b50565b600081905061081c826107fa565b919050565b600061082c8261080e565b9050919050565b61083c81610821565b82525050565b600061085160208401846102a8565b905092915050565b61086281610287565b82525050565b6080820161087960008301836107b4565b6108866000850182610833565b506108946020830183610842565b6108a16020850182610859565b506108af6040830183610842565b6108bc6040850182610859565b506108ca6060830183610842565b6108d76060850182610859565b50505050565b60006108e98383610868565b60808301905092915050565b600082905092915050565b6000608082019050919050565b60006109198385610774565b935061092482610785565b8060005b8581101561095d5761093a82846108f5565b61094488826108dd565b975061094f83610900565b925050600181019050610928565b5085925050509392505050565b60006060830161097d600084018461062c565b61098a6000860182610643565b506109986020840184610661565b85830360208701526109ab8382846106e4565b925050506109bc6040840184610711565b85830360408701526109cf83828461090d565b925050508091505092915050565b60006109e9838361096a565b905092915050565b600082356001606003833603038112610a0d57610a0c61065c565b5b82810191505092915050565b6000602082019050919050565b6000610a328385610611565b935083602084028501610a4484610622565b8060005b87811015610a88578484038952610a5f82846109f1565b610a6985826109dd565b9450610a7483610a19565b925060208a01995050600181019050610a48565b50829750879450505050509392505050565b600081519050919050565b600082825260208201905092915050565b6000819050602082019050919050565b6000610ad28383610859565b60208301905092915050565b6000602082019050919050565b6000610af682610a9a565b610b008185610aa5565b9350610b0b83610ab6565b8060005b83811015610b3c578151610b238882610ac6565b9750610b2e83610ade565b925050600181019050610b0f565b5085935050505092915050565b6000606082019050610b5e6000830187610566565b8181036020830152610b71818587610a26565b90508181036040830152610b858184610aeb565b905095945050505050565b6000602082019050610ba56000830184610566565b92915050565b600081519050610bba81610291565b92915050565b600060208284031215610bd657610bd561021f565b5b6000610be484828501610bab565b9150509291505056fe608060405234801561001057600080fd5b50610b84806100206000396000f3fe608060405234801561001057600080fd5b506004361061002b5760003560e01c8063ad8a267e14610030575b600080fd5b61004a60048036038101906100459190610448565b61004c565b005b60008490508073ffffffffffffffffffffffffffffffffffffffff166392bc95058585856040518463ffffffff1660e01b815260040161008e93929190610a10565b600060405180830381600087803b1580156100a857600080fd5b505af11580156100bc573d6000803e3d6000fd5b5050505060008573ffffffffffffffffffffffffffffffffffffffff166392bc950560e01b8686866040516024016100f693929190610a10565b604051602081830303815290604052907bffffffffffffffffffffffffffffffffffffffffffffffffffffffff19166020820180517bffffffffffffffffffffffffffffffffffffffffffffffffffffffff83818316178352505050506040516101609190610aba565b600060405180830381855af49150503d806000811461019b576040519150601f19603f3d011682016040523d82523d6000602084013e6101a0565b606091505b50509050806101e4576040517f08c379a00000000000000000000000000000000000000000000000000000000081526004016101db90610b2e565b60405180910390fd5b505050505050565b6000604051905090565b600080fd5b600080fd5b600073ffffffffffffffffffffffffffffffffffffffff82169050919050565b600061022b82610200565b9050919050565b61023b81610220565b811461024657600080fd5b50565b60008135905061025881610232565b92915050565b600080fd5b600080fd5b600080fd5b60008083601f8401126102835761028261025e565b5b8235905067ffffffffffffffff8111156102a05761029f610263565b5b6020830191508360208202830111156102bc576102bb610268565b5b9250929050565b6000601f19601f8301169050919050565b7f4e487b7100000000000000000000000000000000000000000000000000000000600052604160045260246000fd5b61030c826102c3565b810181811067ffffffffffffffff8211171561032b5761032a6102d4565b5b80604052505050565b600061033e6101ec565b905061034a8282610303565b919050565b600067ffffffffffffffff82111561036a576103696102d4565b5b602082029050602081019050919050565b6000819050919050565b61038e8161037b565b811461039957600080fd5b50565b6000813590506103ab81610385565b92915050565b60006103c46103bf8461034f565b610334565b905080838252602082019050602084028301858111156103e7576103e6610268565b5b835b8181101561041057806103fc888261039c565b8452602084019350506020810190506103e9565b5050509392505050565b600082601f83011261042f5761042e61025e565b5b813561043f8482602086016103b1565b91505092915050565b60008060008060608587031215610462576104616101f6565b5b600061047087828801610249565b945050602085013567ffffffffffffffff811115610491576104906101fb565b5b61049d8782880161026d565b9350935050604085013567ffffffffffffffff8111156104c0576104bf6101fb565b5b6104cc8782880161041a565b91505092959194509250565b600082825260208201905092915050565b6000819050919050565b60006105026020840184610249565b905092915050565b61051381610220565b82525050565b600080fd5b600080fd5b600080fd5b6000808335600160200384360303811261054557610544610523565b5b83810192508235915060208301925067ffffffffffffffff82111561056d5761056c610519565b5b6001820236038313156105835761058261051e565b5b509250929050565b600082825260208201905092915050565b82818337600083830152505050565b60006105b7838561058b565b93506105c483858461059c565b6105cd836102c3565b840190509392505050565b600080833560016020038436030381126105f5576105f4610523565b5b83810192508235915060208301925067ffffffffffffffff82111561061d5761061c610519565b5b6080820236038313156106335761063261051e565b5b509250929050565b600082825260208201905092915050565b6000819050919050565b6005811061066357600080fd5b50565b60008135905061067581610656565b92915050565b600061068a6020840184610666565b905092915050565b7f4e487b7100000000000000000000000000000000000000000000000000000000600052602160045260246000fd5b600581106106d2576106d1610692565b5b50565b60008190506106e3826106c1565b919050565b60006106f3826106d5565b9050919050565b610703816106e8565b82525050565b6000610718602084018461039c565b905092915050565b6107298161037b565b82525050565b60808201610740600083018361067b565b61074d60008501826106fa565b5061075b6020830183610709565b6107686020850182610720565b506107766040830183610709565b6107836040850182610720565b506107916060830183610709565b61079e6060850182610720565b50505050565b60006107b0838361072f565b60808301905092915050565b600082905092915050565b6000608082019050919050565b60006107e0838561063b565b93506107eb8261064c565b8060005b858110156108245761080182846107bc565b61080b88826107a4565b9750610816836107c7565b9250506001810190506107ef565b5085925050509392505050565b60006060830161084460008401846104f3565b610851600086018261050a565b5061085f6020840184610528565b85830360208701526108728382846105ab565b9250505061088360408401846105d8565b85830360408701526108968382846107d4565b925050508091505092915050565b60006108b08383610831565b905092915050565b6000823560016060038336030381126108d4576108d3610523565b5b82810191505092915050565b6000602082019050919050565b60006108f983856104d8565b93508360208402850161090b846104e9565b8060005b8781101561094f57848403895261092682846108b8565b61093085826108a4565b945061093b836108e0565b925060208a0199505060018101905061090f565b50829750879450505050509392505050565b600081519050919050565b600082825260208201905092915050565b6000819050602082019050919050565b60006109998383610720565b60208301905092915050565b6000602082019050919050565b60006109bd82610961565b6109c7818561096c565b93506109d28361097d565b8060005b83811015610a035781516109ea888261098d565b97506109f5836109a5565b9250506001810190506109d6565b5085935050505092915050565b60006040820190508181036000830152610a2b8185876108ed565b90508181036020830152610a3f81846109b2565b9050949350505050565b600081519050919050565b600081905092915050565b60005b83811015610a7d578082015181840152602081019050610a62565b60008484015250505050565b6000610a9482610a49565b610a9e8185610a54565b9350610aae818560208601610a5f565b80840191505092915050565b6000610ac68284610a89565b915081905092915050565b600082825260208201905092915050565b7f44656c656761746563616c6c206661696c656400000000000000000000000000600082015250565b6000610b18601383610ad1565b9150610b2382610ae2565b602082019050919050565b60006020820190508181036000830152610b4781610b0b565b905091905056fea2646970667358221220194c938c7a5591086c58015ba6cd3438bd540536330861b9a7dcb45e5936499364736f6c63430008140033a2646970667358221220f62b88c98ed040037a30fadd2420e32829c92f785fecf70b12cebb30df799f7164736f6c63430008140033",
  "linkReferences": {},
  "deployedLinkReferences": {}
}