{
  "_format": "hh-sol-artifact-1",
  "contractName": "RouterSimulator",
  "sourceName": "contracts/RouterSimulator.sol",
  "abi": [
    {
      "inputs": [
        {
          "internalType": "address",
          "name": "routerAddress",
          "type": "address"
        },
        {
          "internalType": "address",
          "name": "inputToken",
          "type": "address"
        },
        {
          "internalType": "uint256",
          "name": "inputAmount",
          "type": "uint256"
        },
        {
          "internalType": "address",
          "name": "outputToken",
          "type": "address"
        },
        {
          "components": [
            {
              "internalType": "address",
              "name": "stepAddress",
              "type": "address"
            },
            {
              "internalType": "bytes",
              "name": "stepEncodedCall",
              "type": "bytes"
            },
            {
              "components": [
                {
                  "internalType": "enum Router.StoreOpType",
                  "name": "storeOpType",
                  "type": "uint8"
                },
                {
                  "internalType": "uint256",
                  "name": "storeNumber",
                  "type": "uint256"
                },
                {
                  "internalType": "uint256",
                  "name": "offset",
                  "type": "uint256"
                },
                {
                  "internalType": "uint256",
                  "name": "fraction",
                  "type": "uint256"
                }
              ],
              "internalType": "struct Router.StoreOperation[]",
              "name": "storeOperations",
              "type": "tuple[]"
            }
          ],
          "internalType": "struct Router.Step[]",
          "name": "steps",
          "type": "tuple[]"
        },
        {
          "internalType": "uint256[]",
          "name": "stores",
          "type": "uint256[]"
        }
      ],
      "name": "simulateJamTx",
      "outputs": [
        {
          "internalType": "uint256",
          "name": "",
          "type": "uint256"
        }
      ],
      "stateMutability": "nonpayable",
      "type": "function"
    }
  ],
  "bytecode": "0x608060405234801561001057600080fd5b50610e86806100206000396000f3fe608060405234801561001057600080fd5b506004361061002b5760003560e01c8063c9dd0ada14610030575b600080fd5b61004a6004803603810190610045919061057a565b610060565b6040516100579190610654565b60405180910390f35b6000808573ffffffffffffffffffffffffffffffffffffffff166370a08231306040518263ffffffff1660e01b815260040161009c919061067e565b602060405180830381865afa1580156100b9573d6000803e3d6000fd5b505050506040513d601f19601f820116820180604052508101906100dd91906106ae565b90508773ffffffffffffffffffffffffffffffffffffffff166323b872dd33308a6040518463ffffffff1660e01b815260040161011c939291906106db565b6020604051808303816000875af115801561013b573d6000803e3d6000fd5b505050506040513d601f19601f8201168201806040525081019061015f919061074a565b5060008973ffffffffffffffffffffffffffffffffffffffff166392bc950560e01b87878760405160240161019693929190610caf565b604051602081830303815290604052907bffffffffffffffffffffffffffffffffffffffffffffffffffffffff19166020820180517bffffffffffffffffffffffffffffffffffffffffffffffffffffffff83818316178352505050506040516102009190610d59565b600060405180830381855af49150503d806000811461023b576040519150601f19603f3d011682016040523d82523d6000602084013e610240565b606091505b5050905080610284576040517f08c379a000000000000000000000000000000000000000000000000000000000815260040161027b90610dcd565b60405180910390fd5b60008773ffffffffffffffffffffffffffffffffffffffff166370a08231306040518263ffffffff1660e01b81526004016102bf919061067e565b602060405180830381865afa1580156102dc573d6000803e3d6000fd5b505050506040513d601f19601f8201168201806040525081019061030091906106ae565b9050828161030e9190610e1c565b9350505050979650505050505050565b6000604051905090565b600080fd5b600080fd5b600073ffffffffffffffffffffffffffffffffffffffff82169050919050565b600061035d82610332565b9050919050565b61036d81610352565b811461037857600080fd5b50565b60008135905061038a81610364565b92915050565b6000819050919050565b6103a381610390565b81146103ae57600080fd5b50565b6000813590506103c08161039a565b92915050565b600080fd5b600080fd5b600080fd5b60008083601f8401126103eb576103ea6103c6565b5b8235905067ffffffffffffffff811115610408576104076103cb565b5b602083019150836020820283011115610424576104236103d0565b5b9250929050565b6000601f19601f8301169050919050565b7f4e487b7100000000000000000000000000000000000000000000000000000000600052604160045260246000fd5b6104748261042b565b810181811067ffffffffffffffff821117156104935761049261043c565b5b80604052505050565b60006104a661031e565b90506104b2828261046b565b919050565b600067ffffffffffffffff8211156104d2576104d161043c565b5b602082029050602081019050919050565b60006104f66104f1846104b7565b61049c565b90508083825260208201905060208402830185811115610519576105186103d0565b5b835b81811015610542578061052e88826103b1565b84526020840193505060208101905061051b565b5050509392505050565b600082601f830112610561576105606103c6565b5b81356105718482602086016104e3565b91505092915050565b600080600080600080600060c0888a03121561059957610598610328565b5b60006105a78a828b0161037b565b97505060206105b88a828b0161037b565b96505060406105c98a828b016103b1565b95505060606105da8a828b0161037b565b945050608088013567ffffffffffffffff8111156105fb576105fa61032d565b5b6106078a828b016103d5565b935093505060a088013567ffffffffffffffff81111561062a5761062961032d565b5b6106368a828b0161054c565b91505092959891949750929550565b61064e81610390565b82525050565b60006020820190506106696000830184610645565b92915050565b61067881610352565b82525050565b6000602082019050610693600083018461066f565b92915050565b6000815190506106a88161039a565b92915050565b6000602082840312156106c4576106c3610328565b5b60006106d284828501610699565b91505092915050565b60006060820190506106f0600083018661066f565b6106fd602083018561066f565b61070a6040830184610645565b949350505050565b60008115159050919050565b61072781610712565b811461073257600080fd5b50565b6000815190506107448161071e565b92915050565b6000602082840312156107605761075f610328565b5b600061076e84828501610735565b91505092915050565b600082825260208201905092915050565b6000819050919050565b60006107a1602084018461037b565b905092915050565b6107b281610352565b82525050565b600080fd5b600080fd5b600080fd5b600080833560016020038436030381126107e4576107e36107c2565b5b83810192508235915060208301925067ffffffffffffffff82111561080c5761080b6107b8565b5b600182023603831315610822576108216107bd565b5b509250929050565b600082825260208201905092915050565b82818337600083830152505050565b6000610856838561082a565b935061086383858461083b565b61086c8361042b565b840190509392505050565b60008083356001602003843603038112610894576108936107c2565b5b83810192508235915060208301925067ffffffffffffffff8211156108bc576108bb6107b8565b5b6080820236038313156108d2576108d16107bd565b5b509250929050565b600082825260208201905092915050565b6000819050919050565b6005811061090257600080fd5b50565b600081359050610914816108f5565b92915050565b60006109296020840184610905565b905092915050565b7f4e487b7100000000000000000000000000000000000000000000000000000000600052602160045260246000fd5b6005811061097157610970610931565b5b50565b600081905061098282610960565b919050565b600061099282610974565b9050919050565b6109a281610987565b82525050565b60006109b760208401846103b1565b905092915050565b6109c881610390565b82525050565b608082016109df600083018361091a565b6109ec6000850182610999565b506109fa60208301836109a8565b610a0760208501826109bf565b50610a1560408301836109a8565b610a2260408501826109bf565b50610a3060608301836109a8565b610a3d60608501826109bf565b50505050565b6000610a4f83836109ce565b60808301905092915050565b600082905092915050565b6000608082019050919050565b6000610a7f83856108da565b9350610a8a826108eb565b8060005b85811015610ac357610aa08284610a5b565b610aaa8882610a43565b9750610ab583610a66565b925050600181019050610a8e565b5085925050509392505050565b600060608301610ae36000840184610792565b610af060008601826107a9565b50610afe60208401846107c7565b8583036020870152610b1183828461084a565b92505050610b226040840184610877565b8583036040870152610b35838284610a73565b925050508091505092915050565b6000610b4f8383610ad0565b905092915050565b600082356001606003833603038112610b7357610b726107c2565b5b82810191505092915050565b6000602082019050919050565b6000610b988385610777565b935083602084028501610baa84610788565b8060005b87811015610bee578484038952610bc58284610b57565b610bcf8582610b43565b9450610bda83610b7f565b925060208a01995050600181019050610bae565b50829750879450505050509392505050565b600081519050919050565b600082825260208201905092915050565b6000819050602082019050919050565b6000610c3883836109bf565b60208301905092915050565b6000602082019050919050565b6000610c5c82610c00565b610c668185610c0b565b9350610c7183610c1c565b8060005b83811015610ca2578151610c898882610c2c565b9750610c9483610c44565b925050600181019050610c75565b5085935050505092915050565b60006040820190508181036000830152610cca818587610b8c565b90508181036020830152610cde8184610c51565b9050949350505050565b600081519050919050565b600081905092915050565b60005b83811015610d1c578082015181840152602081019050610d01565b60008484015250505050565b6000610d3382610ce8565b610d3d8185610cf3565b9350610d4d818560208601610cfe565b80840191505092915050565b6000610d658284610d28565b915081905092915050565b600082825260208201905092915050565b7f44656c656761746563616c6c206661696c656400000000000000000000000000600082015250565b6000610db7601383610d70565b9150610dc282610d81565b602082019050919050565b60006020820190508181036000830152610de681610daa565b9050919050565b7f4e487b7100000000000000000000000000000000000000000000000000000000600052601160045260246000fd5b6000610e2782610390565b9150610e3283610390565b9250828203905081811115610e4a57610e49610ded565b5b9291505056fea2646970667358221220853031ee8e7a3740244e907a90596bb2cb4591af185116003427df2167885f4864736f6c63430008140033",
  "linkReferences": {},
  "deployedLinkReferences": {}
}