{
  "_format": "hh-sol-artifact-1",
  "contractName": "Router",
  "sourceName": "contracts/Router.sol",
  "abi": [
    {
      "inputs": [
        {
          "internalType": "bytes",
          "name": "result",
          "type": "bytes"
        },
        {
          "internalType": "uint256",
          "name": "offset",
          "type": "uint256"
        }
      ],
      "name": "getResultOffset",
      "outputs": [
        {
          "internalType": "uint256",
          "name": "",
          "type": "uint256"
        }
      ],
      "stateMutability": "pure",
      "type": "function"
    },
    {
      "inputs": [
        {
          "internalType": "bytes",
          "name": "encodedCall",
          "type": "bytes"
        },
        {
          "internalType": "uint256",
          "name": "offset",
          "type": "uint256"
        },
        {
          "internalType": "uint256",
          "name": "newData",
          "type": "uint256"
        }
      ],
      "name": "modifyCallData",
      "outputs": [
        {
          "internalType": "bytes",
          "name": "",
          "type": "bytes"
        }
      ],
      "stateMutability": "pure",
      "type": "function"
    },
    {
      "inputs": [
        {
          "components": [
            {
              "internalType": "address",
              "name": "stepAddress",
              "type": "address"
            },
            {
              "internalType": "bytes",
              "name": "stepEncodedCall",
              "type": "bytes"
            },
            {
              "components": [
                {
                  "internalType": "enum Router.StoreOpType",
                  "name": "storeOpType",
                  "type": "uint8"
                },
                {
                  "internalType": "uint256",
                  "name": "storeNumber",
                  "type": "uint256"
                },
                {
                  "internalType": "uint256",
                  "name": "offset",
                  "type": "uint256"
                },
                {
                  "internalType": "uint256",
                  "name": "fraction",
                  "type": "uint256"
                }
              ],
              "internalType": "struct Router.StoreOperation[]",
              "name": "storeOperations",
              "type": "tuple[]"
            }
          ],
          "internalType": "struct Router.Step[]",
          "name": "steps",
          "type": "tuple[]"
        },
        {
          "internalType": "uint256[]",
          "name": "stores",
          "type": "uint256[]"
        }
      ],
      "name": "runSteps",
      "outputs": [],
      "stateMutability": "nonpayable",
      "type": "function"
    }
  ],
  "bytecode": "0x608060405234801561001057600080fd5b5061156b806100206000396000f3fe608060405234801561001057600080fd5b50600436106100415760003560e01c806332a07c521461004657806391aa780e1461007657806392bc9505146100a6575b600080fd5b610060600480360381019061005b9190610c67565b6100c2565b60405161006d9190610d55565b60405180910390f35b610090600480360381019061008b9190610d77565b6101ab565b60405161009d9190610de2565b60405180910390f35b6100c060048036038101906100bb9190610f20565b610212565b005b606083516020846100d39190610fcb565b1115610114576040517f08c379a000000000000000000000000000000000000000000000000000000000815260040161010b9061105c565b60405180910390fd5b60008260001b905060005b602081101561019f5781816020811061013b5761013a61107c565b5b1a60f81b86828761014c9190610fcb565b8151811061015d5761015c61107c565b5b60200101907effffffffffffffffffffffffffffffffffffffffffffffffffffffffffffff1916908160001a9053508080610197906110ab565b91505061011f565b50849150509392505050565b600082516020836101bc9190610fcb565b11156101fd576040517f08c379a00000000000000000000000000000000000000000000000000000000081526004016101f49061105c565b60405180910390fd5b60006020830184015190508091505092915050565b60008383905011610258576040517f08c379a000000000000000000000000000000000000000000000000000000000815260040161024f9061113f565b60405180910390fd5b6000606060005b858590508161ffff161015610acf5760008087878461ffff168181106102885761028761107c565b5b905060200281019061029a919061116e565b80602001906102a99190611196565b8080601f016020809104026020016040519081016040528093929190818152602001838380828437600081840152601f19601f82011690508083019250505050505050905060005b88888561ffff168181106103085761030761107c565b5b905060200281019061031a919061116e565b806040019061032991906111f9565b90508161ffff161015610772576000878a8a8761ffff168181106103505761034f61107c565b5b9050602002810190610362919061116e565b806040019061037191906111f9565b8461ffff168181106103865761038561107c565b5b90506080020160200135815181106103a1576103a061107c565b5b6020026020010151905060008a8a8761ffff168181106103c4576103c361107c565b5b90506020028101906103d6919061116e565b80604001906103e591906111f9565b8461ffff168181106103fa576103f961107c565b5b9050608002016060013590506000808c8c8961ffff168181106104205761041f61107c565b5b9050602002810190610432919061116e565b806040019061044191906111f9565b8661ffff168181106104565761045561107c565b5b905060800201600001602081019061046e9190611281565b905060006004811115610484576104836112ae565b5b816004811115610497576104966112ae565b5b14806104c75750600360048111156104b2576104b16112ae565b5b8160048111156104c5576104c46112ae565b5b145b156104ec57620f424083856104dc91906112dd565b6104e6919061134e565b91508196505b60016004811115610500576104ff6112ae565b5b816004811115610513576105126112ae565b5b1480610542575060048081111561052d5761052c6112ae565b5b8160048111156105405761053f6112ae565b5b145b156105c757620f4240838561055791906112dd565b610561919061134e565b91506105c4868e8e8b61ffff1681811061057e5761057d61107c565b5b9050602002810190610590919061116e565b806040019061059f91906111f9565b8861ffff168181106105b4576105b361107c565b5b90506080020160400135846100c2565b95505b600360048111156105db576105da6112ae565b5b8160048111156105ee576105ed6112ae565b5b148061061d5750600480811115610608576106076112ae565b5b81600481111561061b5761061a6112ae565b5b145b1561075b57818b8e8e8b61ffff1681811061063b5761063a61107c565b5b905060200281019061064d919061116e565b806040019061065c91906111f9565b8861ffff168181106106715761067061107c565b5b905060800201602001358151811061068c5761068b61107c565b5b602002602001015110156106d5576040517f08c379a00000000000000000000000000000000000000000000000000000000081526004016106cc906113cb565b60405180910390fd5b818b8e8e8b61ffff168181106106ee576106ed61107c565b5b9050602002810190610700919061116e565b806040019061070f91906111f9565b8861ffff168181106107245761072361107c565b5b905060800201602001358151811061073f5761073e61107c565b5b6020026020010181815161075391906113eb565b915081815250505b50505050808061076a9061142d565b9150506102f1565b50600082111561082c5787878461ffff168181106107935761079261107c565b5b90506020028101906107a5919061116e565b60000160208101906107b791906114b5565b73ffffffffffffffffffffffffffffffffffffffff1682826040516107dc919061151e565b60006040518083038185875af1925050503d8060008114610819576040519150601f19603f3d011682016040523d82523d6000602084013e61081e565b606091505b5080955081965050506108d7565b87878461ffff168181106108435761084261107c565b5b9050602002810190610855919061116e565b600001602081019061086791906114b5565b73ffffffffffffffffffffffffffffffffffffffff168160405161088b919061151e565b6000604051808303816000865af19150503d80600081146108c8576040519150601f19603f3d011682016040523d82523d6000602084013e6108cd565b606091505b5080955081965050505b846108e9576040513d806000833e8082fd5b60005b88888561ffff168181106109035761090261107c565b5b9050602002810190610915919061116e565b806040019061092491906111f9565b90508161ffff161015610ab95760026004811115610945576109446112ae565b5b89898661ffff1681811061095c5761095b61107c565b5b905060200281019061096e919061116e565b806040019061097d91906111f9565b8361ffff168181106109925761099161107c565b5b90506080020160000160208101906109aa9190611281565b60048111156109bc576109bb6112ae565b5b03610aa657610a21858a8a8761ffff168181106109dc576109db61107c565b5b90506020028101906109ee919061116e565b80604001906109fd91906111f9565b8461ffff16818110610a1257610a1161107c565b5b905060800201604001356101ab565b878a8a8761ffff16818110610a3957610a3861107c565b5b9050602002810190610a4b919061116e565b8060400190610a5a91906111f9565b8461ffff16818110610a6f57610a6e61107c565b5b9050608002016020013581518110610a8a57610a8961107c565b5b60200260200101818151610a9e9190610fcb565b915081815250505b8080610ab19061142d565b9150506108ec565b5050508080610ac79061142d565b91505061025f565b505050505050565b6000604051905090565b600080fd5b600080fd5b600080fd5b600080fd5b6000601f19601f8301169050919050565b7f4e487b7100000000000000000000000000000000000000000000000000000000600052604160045260246000fd5b610b3e82610af5565b810181811067ffffffffffffffff82111715610b5d57610b5c610b06565b5b80604052505050565b6000610b70610ad7565b9050610b7c8282610b35565b919050565b600067ffffffffffffffff821115610b9c57610b9b610b06565b5b610ba582610af5565b9050602081019050919050565b82818337600083830152505050565b6000610bd4610bcf84610b81565b610b66565b905082815260208101848484011115610bf057610bef610af0565b5b610bfb848285610bb2565b509392505050565b600082601f830112610c1857610c17610aeb565b5b8135610c28848260208601610bc1565b91505092915050565b6000819050919050565b610c4481610c31565b8114610c4f57600080fd5b50565b600081359050610c6181610c3b565b92915050565b600080600060608486031215610c8057610c7f610ae1565b5b600084013567ffffffffffffffff811115610c9e57610c9d610ae6565b5b610caa86828701610c03565b9350506020610cbb86828701610c52565b9250506040610ccc86828701610c52565b9150509250925092565b600081519050919050565b600082825260208201905092915050565b60005b83811015610d10578082015181840152602081019050610cf5565b60008484015250505050565b6000610d2782610cd6565b610d318185610ce1565b9350610d41818560208601610cf2565b610d4a81610af5565b840191505092915050565b60006020820190508181036000830152610d6f8184610d1c565b905092915050565b60008060408385031215610d8e57610d8d610ae1565b5b600083013567ffffffffffffffff811115610dac57610dab610ae6565b5b610db885828601610c03565b9250506020610dc985828601610c52565b9150509250929050565b610ddc81610c31565b82525050565b6000602082019050610df76000830184610dd3565b92915050565b600080fd5b600080fd5b60008083601f840112610e1d57610e1c610aeb565b5b8235905067ffffffffffffffff811115610e3a57610e39610dfd565b5b602083019150836020820283011115610e5657610e55610e02565b5b9250929050565b600067ffffffffffffffff821115610e7857610e77610b06565b5b602082029050602081019050919050565b6000610e9c610e9784610e5d565b610b66565b90508083825260208201905060208402830185811115610ebf57610ebe610e02565b5b835b81811015610ee85780610ed48882610c52565b845260208401935050602081019050610ec1565b5050509392505050565b600082601f830112610f0757610f06610aeb565b5b8135610f17848260208601610e89565b91505092915050565b600080600060408486031215610f3957610f38610ae1565b5b600084013567ffffffffffffffff811115610f5757610f56610ae6565b5b610f6386828701610e07565b9350935050602084013567ffffffffffffffff811115610f8657610f85610ae6565b5b610f9286828701610ef2565b9150509250925092565b7f4e487b7100000000000000000000000000000000000000000000000000000000600052601160045260246000fd5b6000610fd682610c31565b9150610fe183610c31565b9250828201905080821115610ff957610ff8610f9c565b5b92915050565b600082825260208201905092915050565b7f496e76616c6964206f6666736574000000000000000000000000000000000000600082015250565b6000611046600e83610fff565b915061105182611010565b602082019050919050565b6000602082019050818103600083015261107581611039565b9050919050565b7f4e487b7100000000000000000000000000000000000000000000000000000000600052603260045260246000fd5b60006110b682610c31565b91507fffffffffffffffffffffffffffffffffffffffffffffffffffffffffffffffff82036110e8576110e7610f9c565b5b600182019050919050565b7f524f555445523a20494e56414c4944204c454e47544853000000000000000000600082015250565b6000611129601783610fff565b9150611134826110f3565b602082019050919050565b600060208201905081810360008301526111588161111c565b9050919050565b600080fd5b600080fd5b600080fd5b60008235600160600383360303811261118a5761118961115f565b5b80830191505092915050565b600080833560016020038436030381126111b3576111b261115f565b5b80840192508235915067ffffffffffffffff8211156111d5576111d4611164565b5b6020830192506001820236038313156111f1576111f0611169565b5b509250929050565b600080833560016020038436030381126112165761121561115f565b5b80840192508235915067ffffffffffffffff82111561123857611237611164565b5b60208301925060808202360383131561125457611253611169565b5b509250929050565b6005811061126957600080fd5b50565b60008135905061127b8161125c565b92915050565b60006020828403121561129757611296610ae1565b5b60006112a58482850161126c565b91505092915050565b7f4e487b7100000000000000000000000000000000000000000000000000000000600052602160045260246000fd5b60006112e882610c31565b91506112f383610c31565b925082820261130181610c31565b9150828204841483151761131857611317610f9c565b5b5092915050565b7f4e487b7100000000000000000000000000000000000000000000000000000000600052601260045260246000fd5b600061135982610c31565b915061136483610c31565b9250826113745761137361131f565b5b828204905092915050565b7f496e73756666696369656e742073746f72652076616c75650000000000000000600082015250565b60006113b5601883610fff565b91506113c08261137f565b602082019050919050565b600060208201905081810360008301526113e4816113a8565b9050919050565b60006113f682610c31565b915061140183610c31565b925082820390508181111561141957611418610f9c565b5b92915050565b600061ffff82169050919050565b60006114388261141f565b915061ffff820361144c5761144b610f9c565b5b600182019050919050565b600073ffffffffffffffffffffffffffffffffffffffff82169050919050565b600061148282611457565b9050919050565b61149281611477565b811461149d57600080fd5b50565b6000813590506114af81611489565b92915050565b6000602082840312156114cb576114ca610ae1565b5b60006114d9848285016114a0565b91505092915050565b600081905092915050565b60006114f882610cd6565b61150281856114e2565b9350611512818560208601610cf2565b80840191505092915050565b600061152a82846114ed565b91508190509291505056fea2646970667358221220fdd9aa3db3837fc82ec6df6807aeaea8b7eb6db6b68f07331da2e294b0612f9264736f6c63430008140033",
  "linkReferences": {},
  "deployedLinkReferences": {}
}