{
  "_format": "hh-sol-artifact-1",
  "contractName": "RouterSimulator",
  "sourceName": "contracts/RouterSimulator.sol",
  "abi": [
    {
      "inputs": [
        {
          "internalType": "address",
          "name": "routerAddress",
          "type": "address"
        },
        {
          "internalType": "address[]",
          "name": "inputTokens",
          "type": "address[]"
        },
        {
          "internalType": "uint256[]",
          "name": "inputAmounts",
          "type": "uint256[]"
        },
        {
          "internalType": "address[]",
          "name": "outputTokens",
          "type": "address[]"
        },
        {
          "components": [
            {
              "internalType": "address",
              "name": "stepAddress",
              "type": "address"
            },
            {
              "internalType": "bytes",
              "name": "stepEncodedCall",
              "type": "bytes"
            },
            {
              "components": [
                {
                  "internalType": "enum Router.StoreOpType",
                  "name": "storeOpType",
                  "type": "uint8"
                },
                {
                  "internalType": "uint8",
                  "name": "storeNumber",
                  "type": "uint8"
                },
                {
                  "internalType": "uint8",
                  "name": "secondaryStoreNumber",
                  "type": "uint8"
                },
                {
                  "internalType": "uint16",
                  "name": "offset",
                  "type": "uint16"
                },
                {
                  "internalType": "uint24",
                  "name": "fraction",
                  "type": "uint24"
                }
              ],
              "internalType": "struct Router.StoreOperation[]",
              "name": "storeOperations",
              "type": "tuple[]"
            }
          ],
          "internalType": "struct Router.Step[]",
          "name": "steps",
          "type": "tuple[]"
        },
        {
          "internalType": "uint256[]",
          "name": "stores",
          "type": "uint256[]"
        }
      ],
      "name": "simulateJamTx",
      "outputs": [
        {
          "internalType": "uint256[]",
          "name": "",
          "type": "uint256[]"
        }
      ],
      "stateMutability": "nonpayable",
      "type": "function"
    }
  ],
  "bytecode": "0x608060405234801561001057600080fd5b5061134a806100206000396000f3fe608060405234801561001057600080fd5b506004361061002b5760003560e01c8063bc41cc2a14610030575b600080fd5b61004a6004803603810190610045919061080e565b610060565b60405161005791906109f8565b60405180910390f35b606060008686905067ffffffffffffffff8111156100815761008061069a565b5b6040519080825280602002602001820160405280156100af5781602001602082028036833780820191505090505b50905060005b87879050811015610193578787828181106100d3576100d2610a1a565b5b90506020020160208101906100e89190610a49565b73ffffffffffffffffffffffffffffffffffffffff166370a08231306040518263ffffffff1660e01b81526004016101209190610a85565b602060405180830381865afa15801561013d573d6000803e3d6000fd5b505050506040513d601f19601f820116820180604052508101906101619190610ab5565b82828151811061017457610173610a1a565b5b602002602001018181525050808061018b90610b11565b9150506100b5565b5060005b8b8b9050811015610276578b8b828181106101b5576101b4610a1a565b5b90506020020160208101906101ca9190610a49565b73ffffffffffffffffffffffffffffffffffffffff166323b872dd33308d8d868181106101fa576101f9610a1a565b5b905060200201356040518463ffffffff1660e01b815260040161021f93929190610b68565b6020604051808303816000875af115801561023e573d6000803e3d6000fd5b505050506040513d601f19601f820116820180604052508101906102629190610bd7565b50808061026e90610b11565b915050610197565b5060008c73ffffffffffffffffffffffffffffffffffffffff1663e7cd04df60e01b8787876040516024016102ad939291906111a2565b604051602081830303815290604052907bffffffffffffffffffffffffffffffffffffffffffffffffffffffff19166020820180517bffffffffffffffffffffffffffffffffffffffffffffffffffffffff8381831617835250505050604051610317919061124c565b600060405180830381855af49150503d8060008114610352576040519150601f19603f3d011682016040523d82523d6000602084013e610357565b606091505b505090508061039b576040517f08c379a0000000000000000000000000000000000000000000000000000000008152600401610392906112c0565b60405180910390fd5b60008888905067ffffffffffffffff8111156103ba576103b961069a565b5b6040519080825280602002602001820160405280156103e85781602001602082028036833780820191505090505b50905060005b898990508110156104f15783818151811061040c5761040b610a1a565b5b60200260200101518a8a8381811061042757610426610a1a565b5b905060200201602081019061043c9190610a49565b73ffffffffffffffffffffffffffffffffffffffff166370a08231306040518263ffffffff1660e01b81526004016104749190610a85565b602060405180830381865afa158015610491573d6000803e3d6000fd5b505050506040513d601f19601f820116820180604052508101906104b59190610ab5565b6104bf91906112e0565b8282815181106104d2576104d1610a1a565b5b60200260200101818152505080806104e990610b11565b9150506103ee565b508093505050509a9950505050505050505050565b6000604051905090565b600080fd5b600080fd5b600073ffffffffffffffffffffffffffffffffffffffff82169050919050565b60006105458261051a565b9050919050565b6105558161053a565b811461056057600080fd5b50565b6000813590506105728161054c565b92915050565b600080fd5b600080fd5b600080fd5b60008083601f84011261059d5761059c610578565b5b8235905067ffffffffffffffff8111156105ba576105b961057d565b5b6020830191508360208202830111156105d6576105d5610582565b5b9250929050565b60008083601f8401126105f3576105f2610578565b5b8235905067ffffffffffffffff8111156106105761060f61057d565b5b60208301915083602082028301111561062c5761062b610582565b5b9250929050565b60008083601f84011261064957610648610578565b5b8235905067ffffffffffffffff8111156106665761066561057d565b5b60208301915083602082028301111561068257610681610582565b5b9250929050565b6000601f19601f8301169050919050565b7f4e487b7100000000000000000000000000000000000000000000000000000000600052604160045260246000fd5b6106d282610689565b810181811067ffffffffffffffff821117156106f1576106f061069a565b5b80604052505050565b6000610704610506565b905061071082826106c9565b919050565b600067ffffffffffffffff8211156107305761072f61069a565b5b602082029050602081019050919050565b6000819050919050565b61075481610741565b811461075f57600080fd5b50565b6000813590506107718161074b565b92915050565b600061078a61078584610715565b6106fa565b905080838252602082019050602084028301858111156107ad576107ac610582565b5b835b818110156107d657806107c28882610762565b8452602084019350506020810190506107af565b5050509392505050565b600082601f8301126107f5576107f4610578565b5b8135610805848260208601610777565b91505092915050565b60008060008060008060008060008060c08b8d03121561083157610830610510565b5b600061083f8d828e01610563565b9a505060208b013567ffffffffffffffff8111156108605761085f610515565b5b61086c8d828e01610587565b995099505060408b013567ffffffffffffffff81111561088f5761088e610515565b5b61089b8d828e016105dd565b975097505060608b013567ffffffffffffffff8111156108be576108bd610515565b5b6108ca8d828e01610587565b955095505060808b013567ffffffffffffffff8111156108ed576108ec610515565b5b6108f98d828e01610633565b935093505060a08b013567ffffffffffffffff81111561091c5761091b610515565b5b6109288d828e016107e0565b9150509295989b9194979a5092959850565b600081519050919050565b600082825260208201905092915050565b6000819050602082019050919050565b61096f81610741565b82525050565b60006109818383610966565b60208301905092915050565b6000602082019050919050565b60006109a58261093a565b6109af8185610945565b93506109ba83610956565b8060005b838110156109eb5781516109d28882610975565b97506109dd8361098d565b9250506001810190506109be565b5085935050505092915050565b60006020820190508181036000830152610a12818461099a565b905092915050565b7f4e487b7100000000000000000000000000000000000000000000000000000000600052603260045260246000fd5b600060208284031215610a5f57610a5e610510565b5b6000610a6d84828501610563565b91505092915050565b610a7f8161053a565b82525050565b6000602082019050610a9a6000830184610a76565b92915050565b600081519050610aaf8161074b565b92915050565b600060208284031215610acb57610aca610510565b5b6000610ad984828501610aa0565b91505092915050565b7f4e487b7100000000000000000000000000000000000000000000000000000000600052601160045260246000fd5b6000610b1c82610741565b91507fffffffffffffffffffffffffffffffffffffffffffffffffffffffffffffffff8203610b4e57610b4d610ae2565b5b600182019050919050565b610b6281610741565b82525050565b6000606082019050610b7d6000830186610a76565b610b8a6020830185610a76565b610b976040830184610b59565b949350505050565b60008115159050919050565b610bb481610b9f565b8114610bbf57600080fd5b50565b600081519050610bd181610bab565b92915050565b600060208284031215610bed57610bec610510565b5b6000610bfb84828501610bc2565b91505092915050565b600082825260208201905092915050565b6000819050919050565b6000610c2e6020840184610563565b905092915050565b610c3f8161053a565b82525050565b600080fd5b600080fd5b600080fd5b60008083356001602003843603038112610c7157610c70610c4f565b5b83810192508235915060208301925067ffffffffffffffff821115610c9957610c98610c45565b5b600182023603831315610caf57610cae610c4a565b5b509250929050565b600082825260208201905092915050565b82818337600083830152505050565b6000610ce38385610cb7565b9350610cf0838584610cc8565b610cf983610689565b840190509392505050565b60008083356001602003843603038112610d2157610d20610c4f565b5b83810192508235915060208301925067ffffffffffffffff821115610d4957610d48610c45565b5b60a082023603831315610d5f57610d5e610c4a565b5b509250929050565b600082825260208201905092915050565b6000819050919050565b60088110610d8f57600080fd5b50565b600081359050610da181610d82565b92915050565b6000610db66020840184610d92565b905092915050565b7f4e487b7100000000000000000000000000000000000000000000000000000000600052602160045260246000fd5b60088110610dfe57610dfd610dbe565b5b50565b6000819050610e0f82610ded565b919050565b6000610e1f82610e01565b9050919050565b610e2f81610e14565b82525050565b600060ff82169050919050565b610e4b81610e35565b8114610e5657600080fd5b50565b600081359050610e6881610e42565b92915050565b6000610e7d6020840184610e59565b905092915050565b610e8e81610e35565b82525050565b600061ffff82169050919050565b610eab81610e94565b8114610eb657600080fd5b50565b600081359050610ec881610ea2565b92915050565b6000610edd6020840184610eb9565b905092915050565b610eee81610e94565b82525050565b600062ffffff82169050919050565b610f0c81610ef4565b8114610f1757600080fd5b50565b600081359050610f2981610f03565b92915050565b6000610f3e6020840184610f1a565b905092915050565b610f4f81610ef4565b82525050565b60a08201610f666000830183610da7565b610f736000850182610e26565b50610f816020830183610e6e565b610f8e6020850182610e85565b50610f9c6040830183610e6e565b610fa96040850182610e85565b50610fb76060830183610ece565b610fc46060850182610ee5565b50610fd26080830183610f2f565b610fdf6080850182610f46565b50505050565b6000610ff18383610f55565b60a08301905092915050565b600082905092915050565b600060a082019050919050565b60006110218385610d67565b935061102c82610d78565b8060005b85811015611065576110428284610ffd565b61104c8882610fe5565b975061105783611008565b925050600181019050611030565b5085925050509392505050565b6000606083016110856000840184610c1f565b6110926000860182610c36565b506110a06020840184610c54565b85830360208701526110b3838284610cd7565b925050506110c46040840184610d04565b85830360408701526110d7838284611015565b925050508091505092915050565b60006110f18383611072565b905092915050565b60008235600160600383360303811261111557611114610c4f565b5b82810191505092915050565b6000602082019050919050565b600061113a8385610c04565b93508360208402850161114c84610c15565b8060005b8781101561119057848403895261116782846110f9565b61117185826110e5565b945061117c83611121565b925060208a01995050600181019050611150565b50829750879450505050509392505050565b600060408201905081810360008301526111bd81858761112e565b905081810360208301526111d1818461099a565b9050949350505050565b600081519050919050565b600081905092915050565b60005b8381101561120f5780820151818401526020810190506111f4565b60008484015250505050565b6000611226826111db565b61123081856111e6565b93506112408185602086016111f1565b80840191505092915050565b6000611258828461121b565b915081905092915050565b600082825260208201905092915050565b7f44656c656761746563616c6c206661696c656400000000000000000000000000600082015250565b60006112aa601383611263565b91506112b582611274565b602082019050919050565b600060208201905081810360008301526112d98161129d565b9050919050565b60006112eb82610741565b91506112f683610741565b925082820390508181111561130e5761130d610ae2565b5b9291505056fea2646970667358221220cd6b8608e1b7575847040c8974e071ff8ca7ba5d3535296d2f0e35e08fcadca564736f6c63430008140033",
  "linkReferences": {},
  "deployedLinkReferences": {}
}